:0400000051EF00F0CC
:10000800FACF12F0FBCF13F0E9CF14F0B7EF01F0FD
:10001800D8CF01F0E8CF02F0E0CF03F0FACF04F038
:10002800FBCF05F0E9CF06F0EACF07F0E1CF08F003
:10003800E2CF09F0D9CF0AF0DACF0BF0F3CF0CF00A
:10004800F4CF0DF0F6CF0EF0F7CF0FF0F8CF10F099
:10005800F5CF11F011C0F5FF10C0F8FF0FC0F7FF82
:100068000EC0F6FF0DC0F4FF0CC0F3FF0BC0DAFFA3
:100078000AC0D9FF09C0E2FF08C0E1FF07C0EAFFD4
:1000880006C0E9FF05C0FBFF04C0FAFF03C0E0FF9C
:1000980002C0E8FF01C0D8FF100042EF02F02F5065
:1000A8002924296E30502A202A6EAA0E206EAA0E04
:1000B800216E29C022F02AC023F020502226215088
:1000C80023220A0E246ED89023322232242EFBD704
:1000D800D890223623360001600E2224D96E000102
:1000E800000E2320DA6EDECF25F0DDCF26F0FF0EDE
:1000F80025242D6E7F0E26202E6E2DC020F02EC0BA
:1001080021F0060E226ED89021322032222EFBD703
:1001180020C02DF021C02EF02DC020F0203A0F0174
:1001280015512018CF0B20180F01156F2DC020F086
:100138002EC021F0D89021322032D890213220329E
:1001480020500F01166F12002F502924296E3050AD
:100158002A202A6E550E206E550E216E29C022F0D7
:100168002AC023F020502226215023220A0E246E72
:10017800D89023322232242EFBD7D8902236233629
:100188000001600E2224D96E0001000E2320DA6ED1
:10019800DECF25F0DDCF26F0FF0E25242D6E7F0E55
:1001A80026202E6E2DC020F02EC021F0060E226EC5
:1001B800D89021322032222EFBD720C02DF021C02A
:1001C8002EF02DC020F0203AB4502018CF0B201864
:1001D800B46E2DC020F02EC021F0D89021322032EC
:1001E800D890213220322050B56E12002F50292489
:1001F800296E30502A202A6E29C020F02AC021F00A
:100208000A0E226ED89021322032222EFBD7D890A7
:10021800203621360001600E2024D96E0001000E20
:100228002120DA6EDECF23F0DDCF24F0FF0E232469
:100238002D6E7F0E24202E6E2DC020F02EC021F0B2
:10024800060E226ED89021322032222EFBD720C0F3
:100258002DF021C02EF02DC020F0203ABA502018E1
:10026800CF0B2018BA6E2DC020F02EC021F0D890E8
:1002780021322032D890213220322050BB6E120019
:1002880000008C0CF9182825FB30563C1C473351CC
:10029800825AF1626D6AE27041767C7A897D617F6B
:1002A800FF7F617F897D7C7A4176E2706D6AF162B9
:1002B800825A33511C47563CFB302825F9188C0CC0
:1002C800000074F307E7D8DA05CFAAC3E4B8CDAEC7
:1002D8007EA50F9D93951E8FBF89848577829F8009
:1002E80001809F8077828485BF891E8F93950F9D9B
:1002F8007EA5CDAEE4B8AAC305CFD8DA07E774F374
:10030800000E2A6E000E296E000E306E410E2F6E02
:10031800000E936E550EA76EAA0EA76E0E01BF9122
:100328000E0E0E01CA6F120E0E01C96F160E0E01C7
:10033800C86F0F0E0E01C76F130E0E01C66F170E92
:100348000E01C56F550EA76EAA0EA76E0E01BF81CE
:10035800F28EF28C6BEC02F028EC02F00EEC02F05C
:10036800EAEC01F01200EACF15F0E1CF16F0E2CF87
:1003780017F0D9CF18F0DACF19F0F3CF1AF0F4CF7D
:100388001BF0F6CF1CF0F7CF1DF0F8CF1EF0F5CF1D
:100398001FF01FC0F5FF1EC0F8FF1DC0F7FF1CC0EF
:1003A800F6FF1BC0F4FF1AC0F3FF19C0DAFF18C02C
:1003B800D9FF17C0E2FF16C0E1FF15C0EAFF14C05D
:1003C800E9FF13C0FBFF12C0FAFF1100800E0F01F6
:1003D800166FCF0E0F0115170F0115513F0B80092E
:1003E8000F01156F0F011551F00B0C090F01156F57
:1003F8003F0E0F0152170F0118910F0118930F01AB
:1004080018850F0118970F0118990F01189B0F01F4
:10041800189D1200800EB56ECF0EB416B4503F0B67
:100428008009B46EB450F00B0C09B46E0F015297EA
:100438000F0152990F01529BB790B792B784B796A4
:10044800B798B79AB79C1200800EBB6ECF0EBA163B
:10045800BA503F0B8009BA6EBA50F00B0C09BA6E4D
:100468000F0152910F0152930F015295BD90BD9209
:10047800BD84BD96BD98BD9ABD9C120000EE27F0C4
:10048800080EEE6AE806FDE1880EF66E020EF76EBB
:10049800000EF86E00EE60F010EE80F00900F5CF67
:1004A800EEFFE550E150FAE100015BEF02F077EC76
:1004B80002F084EC01F09EA2FED78182FAEC00F0F3
:1004C800A8EC00F053EC00F09E928192F4D7CA9603
:1004D800CA98CA9ACA9CCA50FC0B0109CA6ECA8437
:1004E800950ECB6E1200D39ED388D38AD38CFC0E84
:0404F800D316120005
:020000040001F9
:08FFF800ADF7FBFFFFFBFFFB6F
:00000001FF
