:020000040800F2
:1000000000A00020B9020008C1020008C5020008D3
:10001000390300083D0300088503000800000000C4
:10002000000000000000000000000000CD030008F8
:10003000D103000800000000D5030008C90A000829
:10004000E9030008E9030008E9030008E9030008E0
:10005000E9030008E9030008E9030008E9030008D0
:10006000E9030008E9030008E9030008E9030008C0
:10007000E9030008E9030008E9030008E9030008B0
:10008000E9030008E9030008E9030008E9030008A0
:10009000E9030008E9030008E9030008E903000890
:1000A000E9030008E9030008E9030008E903000880
:1000B000E9030008E9030008E9030008E903000870
:1000C000E9030008E9030008E9030008E903000860
:1000D000E9030008E9030008E9030008E903000850
:1000E000E9030008E9030008E9030008E903000840
:1000F000E9030008E9030008E9030008E903000830
:10010000000000000000000000000000E9030008FB
:10011000E9030008E9030008E9030008E90300080F
:10012000E9030008E9030008E9030008E9030008FF
:10013000E9030008E90300080000000000000000D7
:10014000E9030008E9030008E903000800000000D3
:10015000000000000000000000000000000000009F
:100160000000000000000000E9030008E9030008A7
:10017000E90300080000000000000000000000008B
:1001800000000000E903000800B583B000F0E8FAC1
:10019000384B394A1360394A136039490CE00A6810
:1001A0004B6801F10C04886803E01168196004339E
:1001B00004329842F9D82146324B9942EFD32E4B64
:1001C0001A68314B9A4204D12C4B1A682F4B9A4231
:1001D00000D0FEE7274B2E4A13602E4A13602E4BA9
:1001E0000AE0194651F8082B5B6802E00020106015
:1001F00004329A42FAD30B46284A9342F1D3244B55
:100200001B6813B9234B1B6803B1FEE700F0ACFA7F
:1002100001A8694600F030FA214C224B1C1BA410A7
:10022000002504E01E4B53F8253098470135AC42B9
:10023000F8DC1D4C1D4B1C1BA410002504E01A4BC0
:1002400053F8253098470135AC42F8DC0198009905
:1002500000F03EFC0546164C164B1C1BA41004E097
:10026000013C134B53F824309847002CF8DC284607
:1002700000F0D4F9BABADECA0000002084000020E1
:10028000EC030008040400087856341232547698BF
:100290008800002024010020040400081404000841
:1002A00014040008140400081404000814040008CE
:1002B000140400081404000808B5FFF765FF00BF28
:1002C00000BEFEE71EF0040F0CBFEFF30880EFF353
:1002D00009807146414A10472DE9F04182B0044639
:1002E0008846134B5E6B9D6B9F6A1B6B13F0020F6E
:1002F0000DD00F4BDB6A002B09DA4BF6AB6100F037
:10030000AFFA20B14FF00042094BDA620CE0094825
:1003100000F0C6F9CDF800802046394632462B461B
:1003200000F026FA00BEFEE702B0BDE8F08100BF93
:1003300000ED00E0D815000800BEFEE71EF0040F37
:100340000CBFEFF30880EFF309807146244A104791
:100350002DE9F04182B007468846084B5D6B9C6BE7
:100360009E6A074800F09CF9CDF800803846314677
:100370002A46234600F0FCF900BEFEE700ED00E04F
:10038000E81500081EF0040F0CBFEFF30880EFF330
:1003900009807146134A10472DE9F04182B00746A3
:1003A0008846084B5D6B9C6B9E6A074800F078F9A5
:1003B000CDF80080384631462A46234600F0D8F969
:1003C00000BEFEE700ED00E0F415000800BEFEE709
:1003D00000BEFEE700BEFEE770470000D90200083D
:0C03E000510300089903000800BEFEE76E
:1003EC007416000800000020880000207416000815
:1003FC0000000010000000108800002028010020E0
:08040C000000001000000010C8
:1004140070B505460E46B0F1904F16D03F4B98424A
:1004240013D003F5806398420FD003F5806398429C
:100434000BD003F58063984207D003F5806398429C
:1004440003D03748B92100F01DF933681BB934488B
:10045400BA2100F017F93379032B03D93048BB21B3
:1004640000F010F9F379022B03D92D48BC2100F0D8
:1004740009F900244EE00123A34032681A409A424D
:1004840047D13379013BDBB2012B29D87379013B86
:10049400DBB2022B03D92248CC2100F0F3F8AA687E
:1004A400610003238B4022EA0303AB60AA687379DB
:1004B4008B401343AB60B379012B03D91848D32184
:1004C40000F0E0F8AB889AB2A1B201238B4022EA93
:1004D4000303AB80AA88B3798B4013439BB2AB80F0
:1004E4002B686100032202FA01F023EA00032B6067
:1004F400286833798B4003432B60EB68A0B240003B
:10050400824023EA0202EA60EA68F3798B401343EB
:10051400EB6001340F2CAED970BD00BF000400485D
:10052400AC13000838B504460D46B0F1904F17D00F
:100534000F4B984214D003F58063984210D003F512
:10054400806398420CD003F58063984208D003F589
:100554008063984204D007484FF4C47100F092F8C5
:1005640025B9044840F2891100F08CF8A56138BD22
:1005740000040048AC13000838B504460D46B0F139
:10058400904F17D00F4B984214D003F580639842D4
:1005940010D003F5806398420CD003F58063984231
:1005A40008D003F58063984204D007484FF4CD7116
:1005B40000F068F825B9044840F29B1100F062F895
:1005C400258538BD00040048AC13000838B504463E
:1005D4000D460E4B034003B920B90D4840F25C515F
:1005E40000F050F8012D04D9094840F25D5100F0A3
:1005F40049F825B1074B5A6914435C6138BD054A73
:10060400536923EA0404546138BD00BFA8FF81CEB6
:10061400E013000800100240FEE700BF08B50348DD
:1006240000F056F80120FFF7F7FF00BF1014000890
:1006340008B50D4B1B6813B90C4A0B4B1A600A4BD7
:100644001A68C31C23F00303134409498B4206D9D7
:1006540000F070FA0C2303604FF0FF3008BD02492C
:100664000B60104608BD00BF8C000020280100204C
:10067400009C002001230360014B0B60704700BF06
:100684000400002008B503460A460348194600F052
:1006940005F8FFF7C3FF00BF641400080FB400B5EA
:1006A40083B004AB53F8042B01930848802100F075
:1006B40079FA011E03DD054800F04CF801460846AE
:1006C40003B05DF804EB04B0704700BF9400002051
:1006D40010B5044600F034FA0146204600F03AF81A
:1006E4000248012100F036F810BD00BF541500087F
:1006F4002DE9F04385B004460F46435C13BB042543
:1007040028462146ABBE04461FE03546102E28BFBE
:100714001025002306E014F8011B04AA1A4402F869
:10072400101C0133AB42F6D304AA1344002203F88D
:10073400102CE9464FF0040840464946ABBE8046BB
:10074400761B00E00E46002EDFD1384605B0BDE82A
:10075400F08300BF08B5FFF7CBFF08BD08B500F074
:10076400E5F808BD08B500F013F908BDF8B504466E
:100774000D4617461E462648FFF790FF2548216878
:10078400FFF78CFF24486168FFF788FF2348A168BE
:10079400FFF784FF2248E168FFF780FF21482169C1
:1007A400FFF77CFF20486169FFF778FF1F48A169C4
:1007B400FFF774FF1E48E169FFF770FF1D48FFF75C
:1007C4006DFF1D482946FFF769FF1C4CE16A1C4870
:1007D400FFF764FF216B1B48FFF760FFE16B1A48CA
:1007E400FFF75CFF15F0800F03D018483946FFF778
:1007F40055FF15F4004F03D015483146FFF74EFF5F
:100804001448FFF74BFF14480699FFF747FFF8BD5C
:10081400BC140008CC140008DC140008EC14000814
:10082400FC1400080C1500081C1500082C15000801
:100834003C1500084C1500085815000800ED00E0B0
:100844006815000878150008881500089815000830
:10085400A8150008B8150008C015000883691A888F
:100864008A4207D10268033A012A05D80233836118
:1008740001207047002070470020704782B0002399
:1008840001930093274A136843F480331360254B84
:100894001B6803F400330093019B01330193009B15
:1008A4001BB9019BB3F5A06FF1D11E4B1B6813F468
:1008B400003F02D00123009301E000230093009B3A
:1008C400012B2CD11222184B1A60A3F580535A68BD
:1008D4005A605A685A605A6842F480625A605A6888
:1008E40022F47C125A605A6842F4E8125A601A6878
:1008F40042F080721A600B4B1B6813F0007FFAD031
:10090400084B5A6822F003025A605A6842F0020205
:100914005A60044B5B6803F00C03082BF9D102B056
:10092400704700BF001002400020024008B5144B7D
:100934001A6842F001021A605968124A0A405A6061
:100944001A6822F0847222F480321A601A6822F43F
:1009540080221A605A6822F4FE025A60DA6A22F08F
:100964000F02DA62196B084A0A401A6300229A607D
:10097400FFF784FF4FF00062044B9A6008BD00BF8C
:10098400001002400CC07FF8CCFC00FF00ED00E03A
:100994001D4B5B6803F00C03042B06D0082B08D016
:1009A4001BBB1A4A1A4B1A6022E0184A184B1A60E9
:1009B4001EE0154A53685268C3F38343023312F4AA
:1009C400803F05D1134A02FB03F3114A13600FE081
:1009D4000D4AD26A02F00F0201320C49B1FBF2F265
:1009E40003FB02F30A4A136002E0084A084B1A6048
:1009F400054B5B68C3F30313074AD25CD2B20449C4
:100A04000B68D3400B6070470010024000127A005C
:100A14001C00002000093D000C00002030B583B00C
:100A24004FF400100121FFF7D1FD4FF4004400946E
:100A340001238DF8043000238DF8063003228DF84D
:100A440005208DF80730054D28466946FFF7E0FC80
:100A540028462146FFF790FD03B030BD0010004842
:100A64000A4B1B680A4AA2FB03239B09013BB3F10F
:100A7400807F09D2074A5360F021074B83F8231083
:100A84000023936007231360704700BF1C000020FD
:100A9400D34D621010E000E000ED00E0034B18605D
:100AA400024B1B68002BFBD1704700BF20010020C4
:100AB400034B1B681BB1024A1368013B1360704768
:100AC4002001002008B5FFF7F3FF08BD10B5144856
:100AD400FFF7FEFD1348144B1968FFF7DFFDFFF71E
:100AE400BFFFFFF79BFF002410484FF40041FFF7BE
:100AF40019FD14B94FF47A7001E040F2EE20FFF7CB
:100B0400CDFF0A484FF40041FFF736FDFA20FFF706
:100B1400C5FF013406482146FFF7C0FDE4E700BFE6
:100B240004160008181600081C00002000100048D5
:100B340030160008014B1868704700BF8000002081
:100B4400034613F8012B002AFBD1181A0138704709
:100B540030B5141E9BB0054604DA8B2303604FF0B6
:100B6400FF301CE04FF40272ADF80C2014BF04F106
:100B7400FF322246029205924FF6FF7200910491D1
:100B8400ADF80E2069461A461E9B00F075F8431C0A
:100B9400BCBF8B232B6014B1009B00221A701BB0C6
:100BA40030BD000073B50093054B06460D46144650
:100BB400186831462A462346FFF7CAFF02B070BDC3
:100BC400800000202DE9F0478E68B34282460C462F
:100BD4009046994640D38A8912F4906F3AD025689A
:100BE40009696F1A6569022305EB450595FBF3F561
:100BF4007B1C4B449D4238BF1D4653050FD52946E7
:100C040000F03CFB064698B121693A4600F0CBFA65
:100C1400A38923F4906343F08003A38113E02A465D
:100C240000F082FB064670B95046216900F0E2FAF2
:100C34000C23CAF80030A38943F04003A3814FF08A
:100C4400FF30BDE8F087266165613E44ED1B2660F8
:100C5400A5604E46B14500D24E4632462068414614
:100C640000F0ACFAA3689B1BA36023681E442660B3
:100C74000020BDE8F08700002DE9F0439DB0064652
:100C840003938B891C060D4690460CD50B6953B90A
:100C9400402100F0F3FA2860286110B90C23336076
:100CA400CCE040236B610023099320238DF8293085
:100CB40030238DF82A3043461C4613F8012B1AB909
:100CC400B4EB08090FD002E0252AF5D1F8E7304645
:100CD400294642464B46FFF775FF013000F0A980D4
:100CE400099B4B4409932378002B00F0A280002336
:100CF4004FF0FF3204930793059206938DF8533017
:100D04001A9304F101084446DFF8489121784846D3
:100D1400052200F039FA08F10108049B30B1C9EB4F
:100D240000000122824013430493ECE7D80644BF39
:100D340020228DF85320190744BF2B228DF853200D
:100D440022782A2A02D0079923460EE0039A111D1D
:100D540012680391002ABBBF524243F00203079278
:100D64000792B8BF049301340AE01C460133227889
:100D7400303A092A03D80A2000FB0121F5E707913C
:100D840023782E2B1AD163782A2B0AD1039B1A1DA0
:100D94001B680392002BB8BF4FF0FF330234059356
:100DA4000CE0611C00220C4601312378303B092BF6
:100DB40003D80A2000FB0232F5E70592DFF8988099
:100DC40021784046032200F0DFF938B1049AC8EBD9
:100DD40000004023834013430493013421781A48CC
:100DE4008DF82810062204F1010800F0CDF988B12D
:100DF400164B33B9039B073323F0070308330393DC
:100E040013E003AB0093304604A92A46104BAFF31A
:100E1400008007E003AB0093304604A92A460C4B3C
:100E240000F092F8421C074603D0099B3B44099307
:100E340041E7AB895B0601D4099801E04FF0FF302C
:100E44001DB0BDE8F08300BF481600080000000094
:100E5400C90B00083E160008441600082DE9F843A3
:100E640091461F468A680B69DDF820809342B8BF1B
:100E74001346C9F8003091F8432006460C4612B1D7
:100E84000133C9F800302368990642BFD9F800300D
:100E94000233C9F80030256815F006051CD094F813
:100EA40043302268003318BF012392061FD5E1188E
:100EB4005A1C302081F84300224494F8451082F8EB
:100EC4004310023313E03046394604F1190201237A
:100ED400C047013007D00135E368D9F800209B1AD8
:100EE4009D42F0DBDBE74FF0FF30BDE8F88330468E
:100EF400394604F14302C0470130F4D02268D9F8DE
:100F04000050E36802F00602042A08BF5D1B226950
:100F1400A3680CBF25EAE57500259342C4BF9B1A5C
:100F2400ED184FF00009A9450ADA3046394604F1B4
:100F34001A020123C0470130D5D009F10109F2E7B3
:100F44000020BDE8F88300002DE9FF410C46174658
:100F5400227E6E2A984606460A9B01F1430100F060
:100F6400AF8012D8632A23D00AD8002A00F0BC80AC
:100F7400582A40F0CB8084F84520DFF804E257E09B
:100F8400642A1ED0692A1CD0C0E0732A00F0B08005
:100F940009D86F2A2ED0702A40F0B880226842F017
:100FA400200222603FE0752A24D0782A3BD0ADE0AD
:100FB4001A68111D1960136884F8423004F142055F
:100FC400A8E020681A6810F0800F02D0101D186085
:100FD40008E010F0400F02F10400186002D0B2F9EA
:100FE400003000E01368002B3EDA2D225B4284F8C7
:100FF400432039E020681A6810F0800F02D0101DD9
:10100400186007E010F0400F02F10400186001D0EE
:10101400138800E01368227EDFF864E16F2A0CBFB6
:1010240008220A221CE07822DFF858E184F84520DF
:101034002268186812F0800F00F104051D6003D1C6
:10104400550601D5038800E00368D00744BF42F089
:10105400200222601BB9226822F0200222601022A2
:10106400002084F8430002E0DFF814E10A226568F6
:10107400A560002DA2BF206820F00400206003B901
:1010840065B10D46B3FBF2F002FB10331EF80330DA
:1010940005F8013D03460028F4D100E00D46082A76
:1010A4000BD12368DA0708D5236962689A42DEBF48
:1010B400302305F8013C05F1FF35491B21612EE081
:1010C40025681A68606915F0800F03D0151D1D602E
:1010D400136808E015F0400F02F104051D60136861
:1010E40001D0188000E01860002323610D4616E04B
:1010F4001A68111D1960156862682846002100F0FD
:1011040043F808B1401B6060636804E004F14205E1
:1011140084F8422001232361002384F84330CDF86E
:1011240000803046214603AA3B46FFF797FE013074
:1011340002D14FF0FF301FE0304639462A4623697A
:10114400C0470130F5D023689B0705D4E068039BB2
:101154009842B8BF18460FE00025E368039A9B1A2B
:101164009D42F3DA3046394604F119020123C0479F
:101174000130DED00135F0E704B0BDE8F08100BFF6
:101184004F1600086016000810B5C9B20244904218
:10119400034606D01C788C4200F10100F7D11846B2
:1011A40010BD002010BD10B5431E0A44914204D066
:1011B40011F8014B03F8014FF8E710BD814210B557
:1011C40001EB020301D3421E0BE09842FBD28118CB
:1011D400D21AD34204D013F8014D01F8014DF8E7B7
:1011E40010BD994204D011F8014B02F8014FF8E701
:1011F40010BD000030B500293DD051F8042C0B1F60
:101204001D49002AB8BF9B180A680C4612B95A60D7
:101214000B6030BD93420DD219685818904201BF3B
:101224005A5852181A6042685A60236030BD994275
:1012340003D80A4651680029F9D1146815199D424A
:101244000AD11B682344D0188842136013D108685C
:10125400034413604B680DE002D90C23036030BDD6
:101264001C681819884204BF08684968596004BF9B
:1012740000191860536030BD1801002070B5CC1CF3
:1012840024F0030408340C2C38BF0C24002C06462C
:1012940003DA0C233360002070BD8C42F9D3204A5A
:1012A400136810461946A1B10A68121B0ED40B2A02
:1012B40003D90A608B188C501FE08B420DBF5A680B
:1012C4004A685A60026018BF0B4616E00B4649682C
:1012D400E9E7144D2B681BB9304600F04BF8286041
:1012E4003046214600F046F8421C0346D1D0C51CC6
:1012F40025F0030585420AD11C6003F10B001A1D79
:1013040020F00700821A0AD05142995070BD30462D
:10131400E91A00F02FF80130BBD02B46ECE770BD82
:101324001801002014010020F8B5074615460E46A2
:1013340021B91146BDE8F840FFF7A0BF1AB9FFF77D
:1013440059FF2846F8BD00F025F8A8420ED23846C9
:101354002946FFF793FF044650B131462A46FFF76A
:1013640022FF38463146FFF745FF01E03046F8BD1D
:101374002046F8BD38B5064C0023054608462360D0
:10138400FFF756F9431C02D1236803B12B6038BD23
:101394001C01002051F8040C0028BEBF091851F8A4
:1013A400043CC018043870472E2E2F73797374656B
:1013B4006D2F7372632F73746D333266332D7374B0
:1013C400647065726970682F73746D33326633307C
:1013D400785F6770696F2E63000000002E2E2F73F4
:1013E400797374656D2F7372632F73746D33326602
:1013F400332D7374647065726970682F73746D3300
:1014040032663330785F7263632E630061626F7299
:101414007428292C2065786974696E672E2E2E0035
:101424002C2066756E6374696F6E3A2000000000AC
:10143400617373657274696F6E202225732220664E
:1014440061696C65643A2066696C652022257322A3
:101454002C206C696E65202564257325730A0000B1
:101464006173736572745F706172616D282920669F
:1014740061696C65643A2066696C65202225732273
:101484002C206C696E652025640A00006D61696E0C
:1014940028617267633D25642C20617267763D5B29
:1014A400000000002C200000222573220000000010
:1014B4005D293B0A00000000537461636B2066726F
:1014C400616D653A0A000000205230203D2020253D
:1014D4003038580A00000000205231203D202025D9
:1014E4003038580A00000000205232203D202025C8
:1014F4003038580A00000000205233203D202025B7
:101504003038580A0000000020523132203D202596
:101514003038580A00000000204C52203D2020257D
:101524003038580A00000000205043203D20202578
:101534003038580A0000000020505352203D202526
:101544003038580A000000004653522F4641523AA0
:101554000A0000002043465352203D202025303805
:10156400580A00002048465352203D202025303898
:10157400580A00002044465352203D20202530388C
:10158400580A00002041465352203D20202530387F
:10159400580A0000204D4D464152203D2025303848
:1015A400580A00002042464152203D202025303870
:1015B400580A00004D6973630A000000204C522F42
:1015C4004558435F52455455524E3D2025303858B6
:1015D4000A0000005B486172644661756C745D0AC0
:1015E400000000005B4275734661756C745D0A000F
:1015F4005B55736167654661756C745D0A00000034
:1016040048656C6C6F2041524D20576F726C642199
:101614000000000053797374656D20636C6F636B15
:101624003A20257520487A0A000000005365636F4C
:101634006E642025750A00004300232D302B200002
:10164400686C4C0065666745464700303132333478
:101654003536373839414243444546003031323318
:0D16640034353637383961626364656600DD
:1016740078563412900000200000000000000000A2
:1016840000000000010203040607080900A24A043E
:101694000000000000000000000000000000000046
:1016A4000000000000000000000000000000000036
:1016B4003C160008000000000000000000000000CC
:1016C4000000000000000000000000000000000016
:1016D4000000000000000000000000000000000006
:1016E40000000000000000000000000000000000F6
:0816F40020000020325476981A
:040000050800018965
:00000001FF
