:020000040800F2
:1000000000A00020B9020008C1020008C5020008D3
:10001000390300083D0300088503000800000000C4
:10002000000000000000000000000000CD030008F8
:10003000D103000800000000D50300084D0A0008A5
:10004000E9030008E9030008E9030008E9030008E0
:10005000E9030008E9030008E9030008E9030008D0
:10006000E9030008E9030008E9030008E9030008C0
:10007000E9030008E9030008E9030008E9030008B0
:10008000E9030008E9030008E9030008E9030008A0
:10009000E9030008E9030008E9030008E903000890
:1000A000E9030008E9030008E9030008E903000880
:1000B000E9030008E9030008E9030008E903000870
:1000C000E9030008E9030008E9030008E903000860
:1000D000E9030008E9030008E9030008E903000850
:1000E000E9030008E9030008E9030008E903000840
:1000F000E9030008E9030008E9030008E903000830
:10010000000000000000000000000000E9030008FB
:10011000E9030008E9030008E9030008E90300080F
:10012000E9030008E9030008E9030008E9030008FF
:10013000E9030008E90300080000000000000000D7
:10014000E9030008E9030008E903000800000000D3
:10015000000000000000000000000000000000009F
:100160000000000000000000E9030008E9030008A7
:10017000E90300080000000000000000000000008B
:1001800000000000E903000800B583B000F0CCFADD
:10019000384B394A1360394A136039490CE00A6810
:1001A0004B6801F10C04886803E01168196004339E
:1001B00004329842F9D82146324B9942EFD32E4B64
:1001C0001A68314B9A4204D12C4B1A682F4B9A4231
:1001D00000D0FEE7274B2E4A13602E4A13602E4BA9
:1001E0000AE0194651F8082B5B6802E00020106015
:1001F00004329A42FAD30B46284A9342F1D3244B55
:100200001B6813B9234B1B6803B1FEE700F090FA9B
:10021000694601A800F018FA214C224B1C1BA410BF
:10022000002504E01E4B53F8253098470135AC42B9
:10023000F8DC1D4C1D4B1C1BA410002504E01A4BC0
:1002400053F8253098470135AC42F8DC0099019805
:1002500000F000FC0546164C164B1C1BA41004E0D5
:10026000013C134B53F824309847002CF8DC284607
:1002700000F0BCF9BABADECA0000002088000020F5
:10028000EC030008040400087856341232547698BF
:100290008C00002028010020040400081404000839
:1002A00014040008140400081404000814040008CE
:1002B000140400081404000808B5FFF765FF00BF28
:1002C00000BEFEE71EF0040F0CBFEFF30880EFF353
:1002D00009807146414A10472DE9F04182B0044639
:1002E0008846134B5E6B9F6B9D6A1B6B13F0020F6E
:1002F0000DD00F4BDB6A002B09DA4BF6AB6100F037
:1003000093FA20B14FF00042094BDA620CE0094841
:1003100000F0ACF9CDF800803B4632462946204635
:1003200000F00AFA00BEFEE702B0BDE8F08100BFAF
:1003300000ED00E0EC15000800BEFEE71EF0040F23
:100340000CBFEFF30880EFF309807146244A104791
:100350002DE9F04182B004468846084B5E6B9F6BE6
:100360009D6A074800F082F9CDF800803B4632468E
:100370002946204600F0E0F900BEFEE700ED00E06F
:10038000FC1500081EF0040F0CBFEFF30880EFF31C
:1003900009807146134A10472DE9F04182B00446A6
:1003A0008846084B5E6B9F6B9D6A074800F05EF9BC
:1003B000CDF800803B4632462946204600F0BCF985
:1003C00000BEFEE700ED00E00816000800BEFEE7F4
:1003D00000BEFEE700BEFEE770470000D90200083D
:0C03E000510300089903000800BEFEE76E
:1003EC0088160008000000208C00002088160008E9
:1003FC0000000010000000108C0000202C010020D8
:08040C000000001000000010C8
:1004200070B505460E46B0F1904F16D0404B98423D
:1004300013D003F5806398420FD003F58063984290
:100440000BD003F58063984207D003F58063984290
:1004500003D0B921374800F0FFF833681BB9BA213F
:10046000344800F0F9F83379032B03D9BB21314824
:1004700000F0F2F8F379022B03D9BC212D4800F0EB
:10048000EBF8002451E00123A340326893434BD1A1
:100490003379013BDBB2012B2CD87379013BDBB202
:1004A000022B03D9CC21234800F0D6F8A9686300B9
:1004B00003229A4021EA0202AA60A968727902FA2C
:1004C00003F30B43AB60B379012B03D9D321194854
:1004D00000F0C2F8AA8891B2A3B201229A4021EAA0
:1004E0000202AA80A98889B2B27902FA03F30B4307
:1004F0009BB2AB802A686300032101FA03F022EA71
:1005000000022A60286832799A4002432A60EA6829
:10051000A0B24000814022EA0101E960E968F27975
:1005200002FA03F30B43EB6001340F2CABD970BD1F
:1005300000040048C013000838B504460D460E4BB1
:10054000034003B920B940F25C510C4800F084F834
:10055000012D04D940F25D51084800F07DF825B125
:10056000074A53691C43546138BD054A536923EA5D
:100570000404546138BD00BFA8FF81CEF413000805
:100580000010024010B582B0044601214FF48020D3
:10059000FFF7D2FF4FF40053009301238DF804308E
:1005A00000228DF806208DF8073003238DF80530E2
:1005B0006946034B53F82400FFF732FF02B010BD29
:1005C00004000020034B53F820304FF400529A618E
:1005D000704700BF04000020034B53F820304FF455
:1005E00000521A85704700BF04000020FEE700BFDC
:1005F00008B5034800F052F80120FFF7F7FF00BFED
:100600002414000808B50D4B1B6813B90C4A0B4B9A
:100610001A600A4B1A68C31C23F0030313440949E8
:100620008B4206D900F044FA0C2303604FF0FF30F0
:1006300008BD02490B60104608BD00BF90000020B5
:100640002C010020009C002001230360014B0B6063
:10065000704700BF0800002008B50A46014602485E
:1006600000F004F8FFF7C4FF781400080FB400B5D9
:1006700083B004AB53F8042B01938021064800F0AB
:1006800051FA002803DD0146034800F049F803B0A1
:100690005DF804EB04B070479800002010B50446E4
:1006A00000F00CFA0146204600F03AF80121024819
:1006B00000F036F810BD00BF681500082DE9F043C2
:1006C00085B004460F46435613BB042528462146F1
:1006D000ABBE04461FE03546102E28BF1025002370
:1006E00006E014F9011B04AA1A4402F8101C013395
:1006F000AB42F6D304AA1344002203F8102CE946B7
:100700004FF0040840464946ABBE8046761B00E0E9
:100710000E46002EDFD1384605B0BDE8F08300BF9D
:1007200008B5FFF7CBFF08BD08B500F0E5F808BD38
:1007300008B500F013F908BDF8B504460D46174694
:100740001E462648FFF792FF21682548FFF78EFFD7
:1007500061682448FFF78AFFA1682348FFF786FFF6
:10076000E1682248FFF782FF21692148FFF77EFFF9
:1007700061692048FFF77AFFA1691F48FFF776FFFC
:10078000E1691E48FFF772FF1D48FFF76FFF29461A
:100790001C48FFF76BFF1C4CE16A1C48FFF766FF23
:1007A000216B1B48FFF762FFE16B1A48FFF75EFF02
:1007B00015F0800F03D039461748FFF757FF15F49F
:1007C000004F03D031461548FFF750FF1448FFF79C
:1007D0004DFF06991348FFF749FFF8BDD0140008F4
:1007E000E0140008F01400080015000810150008B7
:1007F00020150008301500084015000850150008A5
:10080000601500086C15000800ED00E07C1500087C
:100810008C1500089C150008AC150008BC150008D4
:10082000CC150008D415000883691A888A4207D1BC
:100830000268033A012A05D8023383610120704718
:10084000002070470020704782B00023019300937E
:10085000274A136843F480331360254B1B6803F465
:1008600000330093019B01330193009B1BB9019B53
:10087000B3F5A06FF1D11E4B1B6813F4003F02D0FB
:100880000123009301E000230093009B012B2CD156
:100890001222184B1A60A3F580535A685A605A689E
:1008A0005A605A6842F480625A605A6822F47C1294
:1008B0005A605A6842F4E8125A601A6842F080722C
:1008C0001A600B4B1B6813F0007FFAD0084B5A6874
:1008D00022F003025A605A6842F002025A60044B46
:1008E0005B6803F00C03082BF9D102B0704700BF1E
:1008F000001002400020024008B5144B1A6842F074
:1009000001021A605968124A0A405A601A6822F0B5
:10091000847222F480321A601A6822F480221A60EB
:100920005A6822F4FE025A60DA6A22F00F02DA6292
:10093000196B084A0A401A6300229A60FFF784FF85
:100940004FF00062044B9A6008BD00BF00100240E7
:100950000CC07FF8CCFC00FF00ED00E01D4B5B6895
:1009600003F00C03042B06D0082B08D01BBB1A4A3B
:100970001A4B1A6022E0184A184B1A601EE0154AFA
:1009800053685268C3F38343023312F4803F05D1A6
:10099000134A02FB03F3114A13600FE00D4AD26AB7
:1009A00002F00F02511C0C4AB2FBF1F202FB03F3FE
:1009B0000A4A136002E0084A084B1A60054B5B685C
:1009C000C3F30313074AD35CDAB204490B68D3407C
:1009D0000B6070470010024000127A0020000020D7
:1009E00000093D00100000200A4B1B680A4AA2FBC8
:1009F00003239B09013BB3F1807F09D2074A53606F
:100A0000F021074B83F82310002393600723136022
:100A1000704700BF20000020D34D621010E000E0BE
:100A200000ED00E0034B1860024B1B68002BFBD16C
:100A3000704700BF24010020034B1B681BB1024A12
:100A40001368013B136070472401002008B5FFF7CD
:100A5000F3FF08BD10B51248FFF720FE114B1968CF
:100A60001148FFF703FEFFF7BFFF0020FFF78AFDE5
:100A700000240020FFF7A6FD14B94FF47A7001E0BE
:100A800040F2EE20FFF7CEFF0020FFF7A5FDFA2091
:100A9000FFF7C8FF013421460448FFF7E7FDE8E708
:100AA00018160008200000202C1600084416000824
:100AB000014B1868704700BF84000020034613F8FC
:100AC000012B002AFBD1181A0138704730B5141ECB
:100AD00005469BB0184604DA8B232B604FF0FF309D
:100AE0001DE04FF40273ADF80C3014BF04F1FF3376
:100AF0002346029305934FF6FF7300910491ADF8DE
:100B00000E3002461E9B6946284600F073F8431CCF
:100B1000BCBF8B232B6014B1009B00221A701BB04A
:100B200030BD000007B5009313460A46014603484E
:100B30000068FFF7CBFF03B05DF804FB84000020E2
:100B40002DE9F0478E689E4282460C4691469846B3
:100B50003ED88A8912F4906F3AD0256809696F1AD5
:100B60006569022305EB450595FBF3F57B1C4344C2
:100B70009D4238BF1D4653050FD5294600F08CFB1A
:100B8000064698B13A46216900F01AFBA38923F47E
:100B9000906343F08003A38113E02A4600F0D0FB6A
:100BA000064670B92169504600F030FB0C23CAF8A4
:100BB0000030A38943F04003A3814FF0FF30BDE82C
:100BC000F087266165613E44ED1B2660A5604646C0
:100BD000464528BF464632464946206800F0FBFAA3
:100BE000A3689B1BA36023681E4426600020BDE809
:100BF000F08700002DE9F04F9DB0804603938B896C
:100C00001C060D4616460DD50B695BB9402100F058
:100C100043FB2860286118B90C23C8F80030CDE0E8
:100C200040236B610023099320238DF82930DFF8DE
:100C30009CB130238DF82A3037463C4614F8013BEE
:100C40001BB9B7EB060910D003E0252BF9D02746D6
:100C5000F3E74B46324629464046FFF771FF013025
:100C600000F0A780099B4B4409933B78002B00F0D0
:100C7000A08000234FF0FF32049307930592069360
:100C80008DF853301A930126052221784E4800F042
:100C900047FA671C049B38B14B4A801A06FA00F0E9
:100CA000184304903C46EFE7D90644BF20228DF854
:100CB00053201A0744BF2B228DF8532022782A2A6A
:100CC00003D0079A00210A200BE0039A111D126835
:100CD0000391002A10DA524243F002000792049076
:100CE0000BE0274601343B78303B092B03D800FB4F
:100CF00002320121F5E701B107923B782E2B1ED17C
:100D00007B782A2B0AD1039B1A1D1B680392002BA8
:100D1000B8BF4FF0FF330237059310E0002305936F
:100D2000781C19460A24074601303A78303A092AD5
:100D300003D804FB01210123F5E703B10591032248
:100D40003978224800F0ECF940B14023CBEB0000A9
:100D500003FA00F0049B18430490013739781C48CB
:100D60008DF8281006227E1C00F0DAF988B1194BA4
:100D700033B9039B073323F007030833039314E0CD
:100D800003AB00932A46144B04A94046AFF30080FE
:100D900007E003AB00932A460F4B04A9404600F03E
:100DA00093F8B0F1FF3F824603D0099B5344099367
:100DB00042E7AB895B0601D4099801E04FF0FF30B0
:100DC0001DB0BDE8F08F00BF52160008581600088D
:100DD0005C16000800000000410B00082DE9F047F8
:100DE00091461F460A698B68DDF820809342B8BFA0
:100DF0001346C9F8003091F8432006460C4612B15C
:100E00000133C9F800302368990642BFD9F8003091
:100E10000233C9F80030256815F0060510D104F139
:100E2000190A07E00123524639463046C0470130CF
:100E30001AD00135E368D9F800209B1A9D42F1DBF6
:100E400094F843302268003318BF012392060FD56F
:100E5000E1185A1C302081F84300224494F84510D0
:100E600082F84310023303E04FF0FF30BDE8F08713
:100E700004F1430239463046C0470130F4D02268BD
:100E8000D9F80050E36802F00602042A08BF5D1B8F
:100E90002269A3680CBF25EAE57500259342C4BF0B
:100EA0009B1AED184FF000091A344D4509D0012363
:100EB000224639463046C0470130D5D009F10109F4
:100EC000F3E70020BDE8F0872DE9F04317460A7EDE
:100ED00085B06E2A984606460C460C9B01F1430EDF
:100EE00000F0AE8011D8632A22D009D8002A00F081
:100EF000BB80582A40F0CA8081F84520834955E0DC
:100F0000642A1ED0692A1CD0C0E0732A00F0B08089
:100F100009D86F2A2ED0702A40F0B8800A6842F0B3
:100F200020020A603EE0752A24D0782A3AD0ADE04B
:100F30001A6801F14205111D1960136884F84230E6
:100F4000A8E021681A6811F0800F02D0111D196005
:100F500008E011F0400F02F10401196002D0B2F96B
:100F6000003000E01368002B3CDA2D225B4284F84D
:100F7000432037E021681A6811F0800F02D0111D5C
:100F8000196007E011F0400F02F10401196001D06F
:100F9000138800E01368227E5C496F2A14BF0A227E
:100FA00008221BE078225A4984F8452022681868F4
:100FB00012F0800F00F104051D6003D1550601D524
:100FC000038800E00368D00744BF42F0200222609B
:100FD0001BB9226822F0200222601022002084F82F
:100FE000430001E049490A226568A560002D08DB3D
:100FF000206820F0040020602BB9002D7DD17546BB
:101000000CE0002B79D07546B3FBF2F002FB1033F5
:10101000CB5C05F8013D03460028F5D1082A0BD129
:101020002368DA0708D5236962689A42DEBF302355
:1010300005F8013C05F1FF35C5EB0E0323612EE0F9
:1010400008681A68496910F0800F03D0101D1860F5
:10105000136808E010F0400F02F1040018601368F4
:1010600001D0198000E0196000232361754616E065
:101070001A68111D1960156862680021284600F081
:101080004FF808B1401B6060636804E004F142055A
:1010900084F8422001232361002384F84330CDF8F3
:1010A00000803B4603AA21463046FFF797FE0130F9
:1010B00002D14FF0FF3026E023692A4639463046F8
:1010C000C0470130F5D023689B0710D5002504F1F7
:1010D000190907E001234A4639463046C047013026
:1010E000E7D00135E368039A9B1A9D42F2DBE06882
:1010F000039B9842B8BF184605E00B7884F842304D
:1011000004F142058AE705B0BDE8F08363160008E4
:10111000741600080000000000000000000000003D
:1011200001F0FF01102A2BDB10F0070F08D010F898
:10113000013B013A8B422DD010F0070F42B3F6D19C
:10114000F0B441EA012141EA014122F007047FF0B5
:1011500000070023F0E80256083C85EA010586EA0C
:10116000010685FA47F5A3FA87F586FA47F6A5FA48
:1011700087F68EB9EED1F0BC01F0FF0102F0070254
:1011800032B110F8013B013A83EA010313B1F8D1FF
:101190000020704701387047002D06BF35460338E0
:1011A000073815F0010F07D1013015F4807F02BF19
:1011B000013015F4C03F0130F0BC0138704700BF6A
:1011C00010B5431E0A44914204D011F8014B03F8B4
:1011D000014FF8E710BD884210B501EB020301D8BA
:1011E000421E0BE09842FBD28118D21AD34204D09F
:1011F00013F8014D01F8014DF8E710BD994204D0F4
:1012000011F8014B02F8014FF8E710BD30B5002985
:101210003ED051F8042C0B1F1E49002AB8BF9B1862
:101220000A680C4612B95A600B6030BD9A420ED95A
:1012300019685818824204BF106852685A6004BF87
:1012400009181960236030BD994203D80A465168D5
:101250000029F9D1146815199D420AD11B6823444D
:10126000D0188142136013D10868034413604B689F
:101270000DE002D90C23036030BD18681C18A14290
:1012800004BF0C684968596004BF001918605360B6
:1012900030BD00BF1C01002070B5CD1C25F003053A
:1012A00008350C2D38BF0C25002D064603DA0C231B
:1012B0003360002070BDA942F9D81F4B1C681A4644
:1012C0002146A1B10B685B1B0ED40B2B03D90B601D
:1012D000CC18CD501EE08C420DBF63684B68636034
:1012E000136018BF0C4615E00C464968E9E7134C3B
:1012F00023681BB9304600F049F820602946304683
:1013000000F044F8431CD2D0C41C24F00304A042D3
:101310000AD1256004F10B00231D20F00700C31A39
:1013200009D05A42E25070BD211A304600F02EF822
:101330000130EED1BBE770BD1C0100201801002078
:10134000F8B5074615460E4621B91146BDE8F840E6
:10135000FFF7A2BF1AB9FFF759FF2846F8BD00F002
:1013600025F885420ED929463846FFF795FF0446F1
:1013700050B131462A46FFF723FF31463846FFF782
:1013800045FF01E03046F8BD2046F8BD38B5064CB3
:101390000023054608462360FFF734F9431C02D1B9
:1013A000236803B12B6038BD2001002051F8040CE4
:1013B0000028BEBF091851F8043CC0180438704713
:1013C0002E2E2F73797374656D2F7372632F737460
:1013D0006D333266332D7374647065726970682F73
:1013E00073746D3332663330785F6770696F2E6364
:1013F000000000002E2E2F73797374656D2F7372A9
:10140000632F73746D333266332D73746470657239
:101410006970682F73746D3332663330785F72632E
:10142000632E630061626F727428292C20657869CD
:1014300074696E672E2E2E002C2066756E6374699B
:101440006F6E3A2000000000617373657274696FFB
:101450006E2022257322206661696C65643A2066DD
:10146000696C6520222573222C206C696E6520250D
:1014700064257325730A00006173736572745F706D
:101480006172616D2829206661696C65643A206625
:10149000696C6520222573222C206C696E652025DD
:1014A000640A00006D61696E28617267633D25649E
:1014B0002C20617267763D5B000000002C2000004C
:1014C00022257322000000005D293B0A0000000075
:1014D000537461636B206672616D653A0A000000A7
:1014E000205230203D2020253038580A00000000CE
:1014F000205231203D2020253038580A00000000BD
:10150000205232203D2020253038580A00000000AB
:10151000205233203D2020253038580A000000009A
:1015200020523132203D20253038580A000000007A
:10153000204C52203D2020253038580A0000000061
:10154000205043203D2020253038580A000000005C
:1015500020505352203D20253038580A000000000A
:101560004653522F4641523A0A0000002043465348
:1015700052203D2020253038580A0000204846538C
:1015800052203D2020253038580A00002044465380
:1015900052203D2020253038580A00002041465373
:1015A00052203D2020253038580A0000204D4D465D
:1015B0004152203D20253038580A00002042464143
:1015C00052203D2020253038580A00004D697363B1
:1015D0000A000000204C522F4558435F5245545595
:1015E000524E3D20253038580A0000005B48617299
:1015F000644661756C745D0A000000005B4275739F
:101600004661756C745D0A005B5573616765466180
:10161000756C745D0A00000048656C6C6F20415267
:101620004D20576F726C6421000000005379737471
:10163000656D20636C6F636B3A20257520487A0ACC
:10164000000000005365636F6E642025750A00007A
:101650004300232D302B2000686C4C0065666745E5
:10166000464700303132333435363738394142431A
:1016700044454600303132333435363738396162CB
:051680006364656600D3
:10168800785634120004004894000020000000003E
:10169800000000000000000001020304060708091A
:1016A80000A24A0400000000000000000000000042
:1016B8000000000000000000000000000000000022
:1016C80000000000501600080000000000000000A4
:1016D8000000000000000000000000000000000002
:1016E80000000000000000000000000000000000F2
:1016F80000000000000000000000000000000000E2
:0C170800000000002400002032547698FD
:040000050800018965
:00000001FF
